:100000000C9482000C94AA000C94AA000C94AA00F0
:100010000C94AA000C94AA000C94AA000C94AA00B8
:100020000C94AA000C94AA000C94AA000C94AA00A8
:100030000C94AA000C94AA000C94AA000C94AA0098
:100040000C94CE000C94AA000C94CE020C940003E5
:100050000C94AA000C94AA000C94AA000C94AA0078
:100060000C94AA000C94AA000C94AA000C94AA0068
:100070000C94AA000C94AA000C94AA000C94AA0058
:100080000C94AA000C94AA000C94AA000C94AA0048
:100090000C94AA000C94AA000C94AA000C94AA0038
:1000A0000C94AA000C94AA000C94AA000C94AA0028
:1000B0000C94AA00010204081020408001020408E8
:1000C00010200102040810204080400102040804AE
:1000D00004040404040404020202020202030303EF
:1000E00003030302020305050505000000002500C7
:1000F00028002B002E0000000000240027002A000A
:100100002D00300311241FBECFEFD8E0DEBFCDBFDE
:1001100011E0A0E0B1E0E2EBF8E002C005900D9242
:10012000AE31B107D9F721E0AEE1B1E001C01D92D7
:10013000A43CB207E1F710E0C2E8D0E004C0219788
:10014000FE010E945104C138D107C9F70E94200462
:100150000C9457040C94000026E040E855E260E05F
:1001600070E087E291E00E947C0261E085E00C94FF
:100170006001EEE6F0E080818D7F808360E071E0D9
:1001800087E291E00E949D030E941801AB01BC012F
:100190002AE030E087E291E00C940D041F920F9268
:1001A0000FB60F9211242F933F938F939F93AF938A
:1001B000BF938091230190912401A0912501B091DA
:1001C00026013091220126E0230F2D3768F129E81E
:1001D000230F0396A11DB11D2093220180932301BB
:1001E00090932401A0932501B093260180911E01D4
:1001F00090911F01A0912001B09121010196A11DB4
:10020000B11D80931E0190931F01A0932001B09314
:100210002101BF91AF919F918F913F912F910F90AD
:100220000FBE0F901F9018950296A11DB11DD4CF3F
:100230002FB7F894609123017091240180912501DA
:10024000909126012FBF0895789484B5836084BD72
:1002500085B5836085BDEEE6F0E0808181608083B6
:10026000E1E8F0E082E08083808181608083E0E8E3
:10027000F0E0808181608083E1EBF0E08081846048
:100280008083E0EBF0E0808181608083E1E9F0E051
:10029000808183608083E0E9F0E0808181608083F9
:1002A000E1EAF0E0808183608083E0EAF0E0808131
:1002B0008160808386E880937A001092C10008955F
:1002C000CF93DF9390E0FC01EC54FF4F24918153D6
:1002D0009F4FFC0184918823C9F090E0880F991FFB
:1002E000FC01EA50FF4FA591B491FC01E651FF4F8C
:1002F000C591D49161110DC09FB7F8948C91209550
:1003000082238C938881282328839FBFDF91CF91FC
:100310000895623051F49FB7F8943C91822F8095F4
:1003200083238C93E8812E2BEFCF8FB7F894EC9139
:100330002E2B2C938FBFEACFFC01918D228D892F1C
:1003400090E0805C9F4F821B91098F7399270895DD
:10035000FC01918D828D981731F0828DE80FF11D8F
:10036000858D90E008958FEF9FEF0895FC01918DAA
:10037000828D981761F0A28DAE0FBF2FB11D5D96D3
:100380008C91928D9F5F9F73928F90E008958FEF75
:100390009FEF0895FC01538D448D252F30E0842F6D
:1003A00090E0821B930B541710F0CF96089501979D
:1003B000089586E293E0892B49F080E090E0892B54
:1003C00029F00E94260381110E94000080E090E045
:1003D000892B49F080E090E0892B29F00E940000F1
:1003E00081110C9400000895FC01A48DA80FB92F71
:1003F000B11DA35ABF4F2C91848D90E001968F734D
:100400009927848FA689B7892C93A089B1898C916B
:1004100080648C93938D848D981306C00288F38931
:10042000E02D80818F7D80830895CF93DF93EC0151
:10043000888D8823B9F0AA89BB89E889F9898C91CC
:1004400085FD03C0808186FD0DC00FB607FCF7CF88
:100450008C9185FFF2CF808185FFEDCFCE010E9488
:10046000F401E9CFDF91CF910895EF92FF920F93BE
:100470001F93CF93DF93EC0181E0888F9B8D8C8D50
:10048000981316C0E889F989808185FF11C0EE892B
:10049000FF896083E889F98980818064808381E0B5
:1004A00090E0DF91CF911F910F91FF90EF90089511
:1004B000F62E0B8D10E00F5F1F4F0F731127E02EEC
:1004C0008C8D8E110CC00FB607FCFACFE889F98924
:1004D000808185FFF5CFCE010E94F401F1CFEB8D35
:1004E000EC0FFD2FF11DE35AFF4FF0820B8FEA89CD
:1004F000FB8980818062D2CFCF92DF92EF92FF9210
:100500001F93CF93DF93EC016A017B01122F60E808
:1005100074E88EE190E0A70196010E942F0421501B
:100520003109410951095695479537952795E8892D
:10053000F98982E08083211580E1380798F0E88905
:10054000F989108260E472E48FE090E0A7019601DF
:100550000E942F04215031094109510956954795B0
:1005600037952795EC85FD853083EE85FF852083C3
:10057000188EEC89FD891083EA89FB89808188695E
:100580008083EA89FB8980818F7D8083DF91CF9191
:100590001F91FF90EF90DF90CF9008951F920F92E0
:1005A0000FB60F9211242F938F939F93EF93FF9386
:1005B000E0913701F09138018081E0913D01F091A7
:1005C0003E0182FD1BC09081809140018F5F8F733F
:1005D00020914101821741F0E0914001F0E0E95D96
:1005E000FE4F958F80934001FF91EF919F918F91E6
:1005F0002F910F900FBE0F901F9018958081F4CF10
:100600001F920F920FB60F9211242F933F934F9387
:100610005F936F937F938F939F93AF93BF93EF936A
:10062000FF9387E291E00E94F401FF91EF91BF9167
:10063000AF919F918F917F916F915F914F913F917A
:100640002F910F900FBE0F901F90189587E291E0A9
:100650000E949C0121E0892B09F420E0822F08955B
:10066000E7E2F1E01382128288EE93E0A0E0B0E0CE
:1006700084839583A683B7838CE091E09183808304
:1006800085EC90E09587848784EC90E09787868757
:1006900080EC90E0918B808B81EC90E0938B828B4F
:1006A00082EC90E0958B848B86EC90E0978B868B28
:1006B000118E128E138E148E0895AF92BF92CF9228
:1006C000DF92EF92FF920F931F93CF93DF936C0112
:1006D0007B018B01040F151FEB015E01AE18BF08F3
:1006E000C017D10759F06991D601ED91FC910190A5
:1006F000F081E02DC6010995892B79F7C501DF91BD
:10070000CF911F910F91FF90EF90DF90CF90BF900E
:10071000AF900895FB0101900020E9F73197AF01F8
:10072000461B570BDC01ED91FC910280F381E02D1B
:1007300009946AE171E00C948A030F931F93CF939D
:10074000DF938C01D0E0C0E06115710519F00E94C3
:100750008A03EC01C8010E9499038C0F9D1FDF9151
:10076000CF911F910F9108958F929F92AF92BF9258
:10077000EF92FF920F931F93CF93DF93CDB7DEB726
:10078000A1970FB6F894DEBF0FBECDBF7C01FA0172
:10079000CB0119A2223008F42AE08E010F5D1F4F11
:1007A000822E912CB12CA12CBF01A50194010E9495
:1007B0002F04F901CA016A300CF5605DD8016E930F
:1007C0008D01232B242B252B79F790E080E01097C7
:1007D00021F0BD01C7010E948A03A1960FB6F894CB
:1007E000DEBF0FBECDBFDF91CF911F910F91FF9064
:1007F000EF90BF90AF909F908F900895695CDECF8F
:100800002115310541F4DC01ED91FC910190F0815D
:10081000E02D642F09940C94B4030F931F93CF938E
:10082000DF93EC010E9400048C01CE010E94990329
:10083000800F911FDF91CF911F910F91089508951F
:100840000E9424010E941F040E94AC00C9EDD1E067
:100850000E94B9002097E1F30E94D901F9CFA1E2EB
:100860001A2EAA1BBB1BFD010DC0AA1FBB1FEE1F2A
:10087000FF1FA217B307E407F50720F0A21BB30B75
:10088000E40BF50B661F771F881F991F1A9469F7F1
:1008900060957095809590959B01AC01BD01CF014D
:1008A0000895EE0FFF1F0590F491E02D0994F89440
:0208B000FFCF78
:1008B200574F524B494E47000000000035025D037E
:0E08C200CA0115029C01B601A8010D0A000032
:00000001FF
